:020000040800F2
:10000000702A0020C9920008E98F0008EB8F0008D1
:10001000ED8F0008EF8F0008F18F0008000000004E
:10002000000000000000000000000000F38F000846
:10003000F58F000800000000F78F0008F98F000816
:10004000D9920008DD920008E1920008FD8F0008B7
:10005000E5920008E9920008019000080790000866
:10006000ED920008F19200080D900008F59200084A
:10007000F9920008FD92000813900008019300080F
:1000800005930008099300080D93000811930008D8
:1000900015930008199300081D9300082193000888
:1000A00025930008299300082D9300083193000838
:1000B00035930008399300083D93000841930008E8
:1000C00045930008499300084D9300085193000898
:1000D000199000081F9000085593000859930008D4
:1000E0005D93000861930008659300086993000818
:1000F00025900008299000082D9000086D930008B5
:100100007193000875930008799300087D930008A7
:100110008193000885930008899300088D93000857
:100120009193000895930008319000089993000876
:100130009D930008A1930008A593000838B504001A
:1001400001D1012032BD04F18405686808B900F0CE
:1001500020F800F00DF808B100F031F800F02CF8AC
:10016000012804D000F00DF820F02A0016E032BD7E
:100170002420686020680168490849000160A06A7D
:1001800070472168486820F490404860216888687A
:10019000704700212970204600F08EBF886000F073
:1001A00004F8BDE8324000F070BB2168086840F0F8
:1001B0000100086020467047204600F0FFB9204645
:1001C00000F000BB38B50346D3F88C0020280AD1D4
:1001D00009B1100001D1012032BD00F043F8BDE8A3
:1001E000384000F0FDBB022032BD70B5044604F17A
:1001F00054051346686B202832D121B3180022D051
:1002000021652B806B800021E96321206863A86A47
:10021000D8B1DFF89823DFF89813C262A86A0163A7
:10022000A86ADFF8901341630021A86A81632668F9
:10023000216DA86A06F1280201F0B7F828B1102153
:10024000E96320206863012070BD206840210162BD
:1002500000F01EF841F0800100F08DF9F8D170BD7A
:10026000022070BD0024DC66DFF84C031C68844269
:100270000CD065682C0209D5186850E8005F044668
:1002800045F0806544E800500028F5D118467047D5
:10029000226802F1080151E8001F083270472DE979
:1002A000F041054640F60F0C2A68D669104616EA5A
:1002B0000C0F0768936805F15C0407F0200006F056
:1002C00020010DD1002914D010B9D80040F18E8042
:1002D000A169002900F042812846BDE8F0410847A5
:1002E000DFF88CC813EA0C0F04BFDFF888E817EAC0
:1002F0000E0F7BD05FEAC67848BF5FEAC75E07D5BE
:100300004FF00108C2F82080626B42F00102626384
:10031000B2070AD5DA0708D5D5F800E00222CEF8F0
:100320002020626B42F00402626372070CD5DA0788
:100330000AD52A684FF0040EC2F820E0D4F834E061
:100340004EF0020EC4F834E032070DD5002808BF85
:1003500013EA0C0F08D0D5F800C00822CCF82020F2
:10036000626B42F008026263320509D57F0107D54E
:100370002A684FF400661662666B46F020066663D4
:10038000626B002A31D031B108B9D80003D5A16918
:1003900009B128468847606B29688A68510602D4EB
:1003A00010F0280F1CD0284600F0C5FB2868816893
:1003B000480610D500F0E3F8606A60B10FF67101ED
:1003C0008163606A01F06AF800280ED0606A816B70
:1003D000BDE8F04108472846BDE8F04101F054B9B6
:1003E000284601F051F900206063B7E02069012838
:1003F00074D1F10672D5F80670D510211162286803
:100400008168480632D5616A0868406880B2002871
:10041000EBD022889042E8DA6080086801688A069A
:100420001CD4286850E8001F024621F4807100F0B7
:10043000A2F8F6D100F094F800F07FFAFAD100F0BB
:100440008FF800F094F8FAD1202020630021216178
:1004500000F0A2F8FCD1606A00F0ECFF02206061BD
:1004600021886088091A89B2284633E02188628889
:100470006088891A00281CBF88B200286ED02A46DE
:10048000106850E8003F054623F4907345E80030BB
:100490000028F5D1136803F1080050E8006FDFF879
:1004A000CC060833064043E800600028F2D1202340
:1004B000236320610023A361106850E8005F0346B6
:1004C00025F0100543E800500028F5D102206061B6
:1004D00089B21046BDE8F04101F0D7B8F10209D564
:1004E000580207D54FF4801111622846BDE8F0414B
:1004F00001F0CCB8310609D5380601D4190205D56A
:10050000E16959B32846BDE8F0410847700613D5A4
:10051000790611D5286850E8002F014622F04002E4
:1005200000F0E6FAF6D12020E0620021E1612846E1
:10053000BDE8F04101F010B9310206D5780004D5CC
:100540002846BDE8F04101F023B9F00148BF002F73
:1005500004D52846BDE8F04101F01BB9BDE8F081A3
:10056000296801F1080353E8001F2868704700F16B
:10057000080221F0400142E80010002870472A6874
:1005800002F1080151E8001F083221F0400142E861
:1005900000100028F3D17047286850E8002F01466A
:1005A00022F0100241E8002000287047A70B000845
:1005B000D70B0008DD0B000800800040F8B50546A9
:1005C000DFF8A8082A681368A968034028690B4364
:1005D00069690343E8690B430343136000245168CE
:1005E000E86821F4405101435160AB69DFF880189D
:1005F0008A421CBF286A03439668DFF87808DFF850
:1006000078E8DFF8787806403343936067A6D36ACA
:10061000686A1B0940EA0313D3627245DFF81009C8
:100620004FF4004338D13F6807F00307032F4CD83D
:10063000DFE807F0024542484FF0010CE969B1F5E7
:10064000004F4FF6F07740F07F80BCF1010F09D0EA
:10065000BCF1020F0AD0BCF1040F70D0BCF1080F3E
:1006600070D098E001F01CFC002814D06A6A696818
:1006700036F81230B0FBF3F04A0802EB4002B2FB4E
:10068000F1F0A0F11001B942EBD20740C0F34200F3
:1006900007432868C7607FE08A4216D13F6817F495
:1006A000406723D0B7F5806F09D0B7F5006F03D04E
:1006B000B7F5406F06D008E04FF0020C07E04FF0AE
:1006C000040C04E04FF0080C01E04FF0100C8A42DB
:1006D000B4D1BCF1000F09D0BCF1020F0AD0BCF1BB
:1006E000040F15D0BCF1080F15D054E001F0D0FB79
:1006F000002851D0696A36F81120B0FBF2F66A681A
:1007000002EB42018E4246D31303B34205D242E0CC
:1007100001F074FBECE71846ECE75008002110EB01
:10072000062051EB1661002301F054FCA0F5407641
:10073000DFF80079BE422ED22968C8602CE001F0B3
:100740005DFB91E7184691E7BCF1010F09D0BCF1C0
:10075000020F09D0BCF1040F18D0BCF1080F18D05B
:1007600019E001F09DFBB8B16A6A36F81230696889
:10077000B0FBF3F000EB5100B0FBF1F0A0F1100181
:10078000B94208D22A6880B2D06005E001F036FB99
:10079000E9E71846E8E7012405F168000122002195
:1007A00042800280C16001612046F2BD010002006A
:1007B0000400060008000A000C00100020004000A1
:1007C0008000000190F82820110706D502685368C0
:1007D000816B23F400430B43536090F82820D1072A
:1007E00006D502685368C16A23F400330B43536093
:1007F00090F82820910706D502685368016B23F40E
:1008000080330B43536090F828104A0706D50268DE
:100810005368416B23F480230B43536090F82820E6
:10082000D10606D502689368C16B23F480530B434D
:10083000936090F828108A0606D503689A68016CC0
:1008400022F400520A439A6090F82820510610D5ED
:1008500002685368416C23F480130B435360436C6C
:10086000B3F5801F05D15368816C23F4C0030B439B
:10087000536090F82820110606D502685168C06CB4
:1008800021F40021014351607047F8B5044604F19A
:1008900084050020E8606FF07E4701F01FFC2168AE
:1008A00006460868020716D50097334600224FF423
:1008B0000011204600F049F868B1206850E8001F98
:1008C000024621F08001FFF756FEF6D12020686035
:1008D000002129701EE02068026851071CD500978E
:1008E000334600224FF48001204600F02EF898B1E4
:1008F000206850E8001F024621F49071FFF73BFE8C
:10090000F6D100F013F800F018F8FAD12020A86012
:1009100000222A700320F2BD202169602020A860F7
:100920000021E166002020672970F2BD216801F1F5
:10093000080353E8001F20687047490800F10802C7
:10094000490042E80010002870472DE9F041069C5C
:1009500005460E4690461F462968C8693040B04299
:100960000CBF01210021414538D114F1010FF3D012
:1009700001F0B4FBC01B844200D314B90320BDE8CE
:10098000F0812A6811684807E6D5802E18BF402EEE
:10099000E2D01146C869010704D41046C1690805B0
:1009A000DAD50DE0296808220A62284600F0C3F86B
:1009B00005F184000821C160002202700120DEE7F9
:1009C00010464FF400610162284600F0B4F805F1CA
:1009D00084002022C26000210170CFE70020CEE712
:1009E00070B5034600209965FF2403F15C010A807D
:1009F0004A8088619868B0F5805F04D1186980B931
:100A000040F2FF140DE018B9186950B17F200BE0D7
:100A1000B0F1805F07D1186910B97F258D8004E09F
:100A20003F248C8001E00020888000244C63222039
:100A300008631C6804F1080656E8004F186800F1C6
:100A4000080544F0010445E800400028F1D1886819
:100A5000B0F1005F28D18889824225D39A68B2F527
:100A6000805F04BF1869002803D10FF215448C6120
:100A70000BE00FF231328A61186930B100F03CF8B6
:100A800042F4807200F034F8F8D1196801F10804DA
:100A900054E8001F186800F1080241F08051FFF788
:100AA0006AFDF2D1002070BD9868B0F5805F04BF88
:100AB000186900280CD10FF205228A61186850E8E5
:100AC000002F014642F0200200F012F8F6D1E9E7CB
:100AD0000FF299128A6118690028EFD000F00CF823
:100AE00042F4907200F004F8F8D1DBE722F4F072DF
:100AF00041E80020002870471A6852E8002F196862
:100B00007047016851E8003F0A4623F0C00342E8FD
:100B100000310029F5D1036803F1080252E8002FE3
:100B2000083322F4000243E800210029F3D12021F8
:100B3000C0F88810704710B500F01EF8FCD10268AC
:100B400002F1080151E8004F084908320C4042E820
:100B500000410029F3D1C26E00F018F82021C0F83E
:100B60008C100022C266426710BD0000FEFFFFEF3E
:100B70000100001020010004016851E8003F0A460E
:100B800023F4907342E8003100297047012A09D10B
:100B9000016851E8003F0A4623F0100342E80031A3
:100BA0000029F5D1704701460B68886A19688A06E2
:100BB0000FD40021A0F85610036803F1080252E890
:100BC000002F083322F0800243E800210029F3D1EE
:100BD00041E000F0C1BD806A01F086BAF8B5846AD0
:100BE00004F1880504F1560700F01CF806D5212809
:100BF00004D1002038802046FFF783FF22689168E7
:100C0000480606D5222E04D1002038812046FFF761
:100C100092FFA86840F01000A8602046BDE8F240AE
:100C200000F032BD28686E6821688A681106704736
:100C3000806A00F1560100230B8100220A8000F037
:100C400023BD036853E8003F026823F0800342E8B5
:100C500000310029F5D1016851E8003F0A4643F010
:100C6000400342E800310029F5D1704710B500F08B
:100C700048F81BD14B6A9188846D0B402370816DBD
:100C80004B1C00F044F813D100F048F800F05DF878
:100C90000BD10023136100F071F8FCD10168CB691E
:100CA000DC0644BF10230B6272E076E000F001F82E
:100CB00010BD886940F008008861704710B500F0E9
:100CC00020F81BD14B6A9188846D0B402380816D85
:100CD0008B1C00F01CF813D100F020F800F035F860
:100CE0000BD10023136100F049F8FCD10168CB69F6
:100CF000DC0644BF10230B624AE04EE0FFF7D9FF49
:100D000010BD00F15C020168136B222B70478365F4
:100D100051884B1E5380518800297047046854E85D
:100D2000004F036824F4907443E800410029F5D192
:100D3000046804F1080353E8003F5B0808345B00D3
:100D400044E800310029F3D17047202313639161F7
:100D500000235361464903688B420CD05B6819023B
:100D600009D5036853E8003F046823F0806344E832
:100D700000310029F5D1116901297047016851E856
:100D8000003F0C4623F0100344E80031002970476F
:100D90001188BDE8104000F078BCBDE8104000F0BC
:100DA000CBBC00002DE9F84300F00CF94BD1B88919
:100DB00088B9788800284AD0B989884247DA00F093
:100DC000CBF8FCD19C48B86100F0DCF8FCD13EE0E7
:100DD000204600F0B1FCB106EBD500F0E5F801705B
:100DE000A16D4A1C00F0AFF817D0F10748BF5FEAC9
:100DF000C95200F09FF803D5EA0701D500F0DAF8F0
:100E0000700703D5EA0701D500F0C6F8786B20B16A
:100E1000204600F039FC0020786378880028DAD179
:100E200000F0A6F8FCD100F014F8FCD100F0E8F8CE
:100E3000CED100F0D5F844BF102101623988204698
:100E400000F023FCC7E7816941F008018161BDE83A
:100E5000F183216801F1080050E8003F774808312C
:100E6000034041E80030002870470000F369FFCFDD
:100E700000800040FFF4FF11003801408800005856
:100E80002DE9F84300F09EF84BD1B88988B97888ED
:100E900000284AD0B989884247DA00F05DF8FCD1D1
:100EA0006748B86100F06EF8FCD13EE0204600F0E3
:100EB00043FCB106EBD500F077F80180A16D8A1CE8
:100EC00000F041F817D0F10748BF5FEAC95200F0BF
:100ED00031F803D5EA0701D500F06CF8700703D5A7
:100EE000EA0701D500F058F8786B20B1204600F0F1
:100EF000CBFB0020786378880028DAD100F038F83E
:100F0000FCD1FFF7A6FFFCD100F07AF8CED100F0BB
:100F100067F844BF102101623988204600F0B5FB14
:100F2000C7E7816941F008018161BDE8F1830000F4
:100F30000024F40005D501210162786B40F0010026
:100F40007863B0077047A2657888411E7980206871
:100F5000C66916F0070F7047226802F1080353E8CC
:100F6000001F083221F0805142E80010002870472D
:100F7000226852E8002F216822F4807241E80020A4
:100F800000287047226852E8002F216842F02002B2
:100F900041E8002000287047216804200862786B2F
:100FA00040F00200786370472068416AA06D08EA4B
:100FB00001017047206802210162796B41F0040150
:100FC00079637047044604F15C072068B7F8048031
:100FD000C6690146D1F800908568396B22297047AF
:100FE00000213961206850E8002F014622F01002EC
:100FF00041E800200028F5D12068C169CA06704781
:1010000020213963B861002179610E48216881424D
:101010000CD049680A0209D5206850E8001F024632
:1010200021F0806142E800100028F5D138690128DC
:101030007047000000FD0F006D0C0008FEFFFFEF81
:10104000BD0C000800800040974A00E0974A81B03C
:10105000116801431160126810400090009801B0BF
:10106000704780B54FF40020FFF7F0FF0022002109
:101070002E2001F052F8BDE802402E2001F06CB89D
:1010800002688B498A4200D0704780B54FF48010C7
:10109000FFF7DCFF002200212C2001F03EF82C207D
:1010A00001F05AF8002200212D2001F036F8BDE8A9
:1010B00002402D2001F050B838B59EB004461421EE
:1010C000684601F09DF850210AA801F099F82068BF
:1010D0007849794D884252D102200A90002111911D
:1010E0000AA801F0A8F808B101F056FB296841F000
:1010F000010129602868714D00F0010005900598F4
:101100000120FFF7A1FF00210222029101920C2091
:101110000821009003220491039269464FF0904009
:1011200001F03CFB10201121A86069608020644A16
:10113000286100212A60E9606961A961E961296289
:10114000284600F0CDF808B101F026FB4FF088509A
:1011500001210690002209910792ADF8202006A9EE
:10116000284601F0FBFB08B101F016FBE567AC6215
:1011700000220021252000F0D0FF252043E0514926
:10118000884242D101200A90002110910AA801F062
:1011900052F808B101F000FB686840F480406860D4
:1011A0006868494D00F48040059005980220FFF7DB
:1011B0004BFF0221019101220292C02003210090E5
:1011C0000391072204926946404801F0E7FA40483B
:1011D00028600F21696000201022E860802168618A
:1011E000A861E8612862AA602961284600F078F8C1
:1011F00008B101F0D1FAE567AC6200220021242099
:1012000000F08BFF242000F0A7FF1FB030BD10B509
:1012100094B004465021684600F0F2FF23682D493F
:101220008B420FD14FF400724FF0805100920E911B
:10123000684601F000F808B101F0AEFA4FF48020E2
:10124000FFF704FF14B010BD18B595B00446502147
:1012500001A800F0D5FF23681F498B4221D14FF42C
:1012600000624FF480710192119101A800F0E3FF38
:1012700008B101F091FA1948826B42F4004282638E
:101280000022016841F4806101600021006800F4DF
:10129000806000900098032000F03FFF032000F0E2
:1012A0005BFF16B010BD00004C0000585000005805
:1012B000000C0058008000405C00005870180020AE
:1012C0004400024000380140D018002000040048CB
:1012D0004404024000100058002800405800005804
:1012E00038B5040001D1012032BD2168DFF8703328
:1012F000994204F1240500F03FF80221697020684A
:101300000268A068E16823686FF30E120243206947
:101310000A4361690243A0690A43E1690243206A02
:101320000A4302431A60204600F06EF9A068B0F547
:10133000804F04BF002161602179686A01F03F019C
:101340000160A86AE96A4160606858B1052809D25D
:10135000204600F074F9296B00200860696BA86BC7
:10136000486003E000222A636A63AA630020A86140
:1013700001216970287032BD0BD2DFF8E8024118F4
:101380001422B1FBF2F29200DFF8DC122A62E9616A
:101390007047DFF8D80241181422B1FBF2F189003E
:1013A000DFF8CC022962E8617047F8B5064606F11D
:1013B000240500242878012801D10220F2BD012053
:1013C00028706F78012F31D1022068700027AF613B
:1013D00037683868400840003860304600F0F8F858
:1013E0003168E86820B10A6842F00E020A6008E03D
:1013F000086820F0040008603068016841F00A01C4
:101400000160686A0168CA0303D5016841F480710C
:101410000160286B20B10146086840F480700860C4
:101420003168086840F00100086001E02C70022477
:101430002046F2BD40B100F124014A78022A05D0CD
:1014400004238B61002008700120704703681A682C
:1014500022F00E021A604B6A1A6822F480721A6037
:10146000006803685B085B000360012091F820308E
:10147000CA6903F01C03984050608A6AC86A5060C9
:10148000086B30B1026822F480720260486B8A6B8C
:10149000426001224A7000200870704738B500F1A0
:1014A000240200245178022903D0042090610124F1
:1014B00028E001680B6823F00E030B6003681968CD
:1014C000490849001960516A0B6823F480730B6066
:1014D000012192F82050D36905F01C05A9405960FC
:1014E000936AD16A5960116B31B10B6823F4807330
:1014F0000B60516B936B4B600123537014705169F7
:1015000001B18847204632BDF8B500F12401042618
:10151000CA69126803681C6891F8205005F01C0520
:1015200006FA05F73A4215D0670713D51A689406EC
:1015300003D41A6822F004021A6091F82030CA69B4
:1015400003F01C039E405660C96800293ED0BDE8E8
:10155000F4400847022606FA05F73A4218D0A707D2
:1015600016D51C68A20605D41C6824F00A041C6069
:1015700001224A7091F82020CB6902F01C029640AB
:101580005E6000220A70896801B3BDE8F440084734
:10159000082606FA05F52A4218D0220716D51C6837
:1015A00024F00E041C60012291F82040CB6904F065
:1015B0001C04A2405A6001248C6101224A7000235D
:1015C0000B70096911B1BDE8F4400847F1BD000096
:1015D00070B5C56C046D6C60446D14B1856DC46DDF
:1015E0006C60012490F84460056C06F01C06B44061
:1015F0006C60046863608068102802D1A260E160BA
:1016000070BDA160E26070BD10B5426C0168144C01
:101610009208A14234BF174B174B03EB820201F033
:10162000FF01826408391424B1FBF4F1012201F0B6
:101630001F01124BC36402FA01F1016510BD02796A
:101640000F49104B836502F03F0201EB82014165B7
:10165000521E012102F003029140C1657047000053
:1016600008040240F8FFFDBF00000240F8FBFDBF88
:1016700000040240000802401C08024080080240AA
:10168000FC0802404009024070477047704730B57F
:10169000016884684218416802EB5103C90703D509
:1016A0004C4401E0491C08D19A4218BF12F9011BB1
:1016B00001D10C3030BD12F8015B002904F8015B48
:1016C000F0D4491EF7D5EFE710B52B4C10B1022826
:1016D00003D010BD00F00CF801E000F005F8036045
:1016E000BDE81040FEF76EBD63602448244B704790
:1016F00023602448244B704770B500240025234EF6
:1017000010B1022804D00AE03360FFF7F2FF02E0D4
:101710007360FFF7EAFF0360FEF767FD0446012CE4
:1017200005D007D3032C04D038BF022502E00125E1
:1017300000E00325284670BD026811480E49824228
:1017400005D01148824206D1086820B10047486898
:10175000002818BF00477047026809480B498242B9
:1017600005D00948824206D1086820B10047486880
:10177000002818BF00477047301A0020C415002009
:10178000008000405816002000380140381A002020
:10179000704770474FF0B040006800F0F000B0288C
:1017A00088BFB0207047DFF8B4070068000100F080
:1017B000F00070472DE9F041040047D021788806F9
:1017C0004FF0B04530D5A868E96810F00C0001F082
:1017D000030103D00C2808BF012939D1E069002892
:1017E00034D0FFF7D7FF0146606A814206D200F08D
:1017F00069FB00282AD100F013FA0AE02A6822F0D7
:10180000F0021043286000F011FA606A00F05AFB01
:10181000E0B900F02FFBDFF848170860DFF8440755
:10182000006801F0C3F888B92178C8075ED5A968B7
:10183000E86801F00C01082900F0030003D00C292E
:1018400008BF03282AD1606800284FD10120E5E1B4
:10185000E06998B1296841F00101296000F03EFC7F
:1018600006462868800706D400F038FC801B032851
:10187000F7D30320D2E100F0D3F9D5E72868400878
:10188000400000F08DFB064628684008C007CBD515
:1018900000F024FC801B0328F6D3EAE76168B1F569
:1018A000803F04D1286840F48030286003E0296834
:1018B00021F480312960606858B100F00FFC0646C1
:1018C0002868800312D400F009FC801B6528F7D338
:1018D000CFE700F003FC06462868400CC00705D59A
:1018E00000F0FCFB801B6528F6D3C2E72078810757
:1018F00015D5A968E86801F00C01042900F003007F
:1019000003D00C2908BF022825D1E06800289DD00B
:101910006968206921F0FE4141EA0061696021683F
:10192000DFF8446611F0180F00F08A806069002823
:1019300075D0C806706858D581072ED4706800F03D
:101940007DF907467068800727D400F0C7FBC01BED
:101950000328F7D38DE7E06878B1296841F48071F6
:10196000296000F0BBFB064628684005D0D400F093
:10197000B5FB801B0328F7D37BE7286820F4807031
:1019800000F00EFB06462868800AC007C7D500F0A5
:10199000A5FB801B0328F6D36BE7706840F00400BA
:1019A000706000F09BFB07467068000705D400F0EC
:1019B00095FBC01B0428F7D35BE77168A06921F48D
:1019C000706141EA002171607068400840007060F9
:1019D00000F084FB074670684008C00730D500F06F
:1019E0007DFBC01B0328F6D343E700F027F9074629
:1019F0007068800705D400F071FBC01B0328F7D383
:101A000037E7706820F0040070607068C008C00795
:101A100016D500F063FBC01B0428F6D329E77068D5
:101A200020F00400706000F059FB07467068C008A1
:101A3000C007C9D500F052FBC01B0428F6D318E735
:101A40002078410746D5DFF824753868C1050ED4E3
:101A500000F0CEFF00F042FB80463968C80506D48E
:101A600000F03CFBA0EB08000328F6D301E7A068D8
:101A7000012805D00528316806D141F00401316004
:101A8000306840F0010005E04908490031603068E5
:101A900020F00400306041F28937A06860B100F0A6
:101AA0001DFB80463068800714D400F017FBA0EBC4
:101AB0000800B842F6D3DCE600F010FB8046306840
:101AC0004008C00706D500F009FBA0EB0800B842AB
:101AD000F5D3CEE62078410622D5A06A0028B0686A
:101AE0000ED040F00100B06000F0F8FA0746B06890
:101AF000800715D400F0F2FAC01B0328F7D3B8E62C
:101B000040084000B06000F0E9FA0746B0684008BD
:101B1000C00705D500F0E2FAC01B0328F6D3A8E6FB
:101B2000E06A002879D0A968EA68022801F00C016F
:101B30005CD1206B02F00303834202BF02F070030A
:101B4000606B834213D1A06BC2F30623834202BFB2
:101B500002F47813E06B834209D1206C02F06063D9
:101B6000834202BF02F06042606C82423AD00C298C
:101B70003DD0286841013FF569AE286820F08070AB
:101B800000F00EFA06462968880105D500F0A6FA8D
:101B9000801B0328F7D36CE6EA68DFF8D403216BD7
:101BA0000240606B0A43A16B0243E06B42EA0122F0
:101BB000216C0243606C0A430243EA60296841F0E9
:101BC00080712960E86840F08050E86000F086FA93
:101BD00004462868810120D400F080FA001B032805
:101BE000F7D346E62968880117D4E7E70C293FF4C4
:101BF0002DAE286820F0807000F0D2F904462968E4
:101C0000880105D500F06AFA001B0328F7D330E6F7
:101C1000E968DFF860030140E9600020BDE8F08179
:101C20002968606A21F0F001014329606968206A2F
:101C300021F47F4141EA00216960704740F00100D2
:101C4000706000F04BBA2DE9F8430400884600F0BC
:101C5000B480DFF82453296801F0070141450ED212
:101C600000F09AF90746286800F00700404506D0C2
:101C700000F034FAC01B0228F5D90320BCE021781B
:101C800088074FF0B04711D5B968A06821F0F0017E
:101C90000143B96000F022FA0646B868C00305D4D3
:101CA00000F01CFA801B0228F7D9E6E72178DFF85C
:101CB000AC62880612D53168606921F0F0010143F9
:101CC000316000F00BFA81463068800306D400F0E2
:101CD00005FAA0EB09000228F6D9CEE720784106E4
:101CE00013D53068A1690009000140EA1110306085
:101CF00000F0F4F981463068C00306D400F0EEF934
:101D0000A0EB09000228F6D9B7E72078420711D5E1
:101D1000B968E06821F4E0610143B96000F0DEF9E0
:101D20000646B868800305D400F0D8F9801B022865
:101D3000F7D9A2E72078010712D5B868216920F405
:101D4000605040EAC100B86000F0C8F90646B868C3
:101D5000400305D400F0C2F9801B0228F7D98CE7B4
:101D60002078C1072BD56068022819D139688A0309
:101D700023D5B968890840EA8100B86000F0AEF95F
:101D80000646B968606801F00C01B1EB800F16D00F
:101D900000F0A4F9801B41F289318842F1D36CE74D
:101DA000032802D13968890103E00028396802D18B
:101DB0008907DED401E04905DBD401201CE0296855
:101DC00001F0070188450DD200F0E6F804462868C6
:101DD00000F00700404505D000F080F9001B022804
:101DE000F5D94AE700F046F85D49086000F01CFEAE
:101DF000BDE8F24300F0DABDBDE8F28338B54FF03C
:101E0000B0455F4CA96811F00C0106D1FFF7C2FC88
:101E1000C0F3031054F8200032BD0429594828D0DB
:101E20000829594A04D12968C90222D4104632BD72
:101E3000E96801F0030102290CD0032904D12968C3
:101E4000C90207D4104605E0FFF7A4FCC0F3031055
:101E500054F82000E968EA68EB68C1F306214843BA
:101E6000C2F30211491C5B0FB0FBF1F05B1CB0FB2D
:101E7000F3F032BD80B5FFF7C1FF404AFFE74349A9
:101E80001268C2F3031251F82210B0FBF1F002BD48
:101E900080B5FFF7EFFF00F010F8C2F3022206E072
:101EA00080B5FFF7E7FF00F008F8C2F3C22211F88F
:101EB000221001F01F01C84002BD304A34491268A7
:101EC0007047000070B52E49B1282EBFCD6AC0F30F
:101ED000031051F82050FFF766FC044600F0BCFDEB
:101EE0002A49C4F3031251F822202A49B5FBF2F221
:101EF0005FF00004B2FBF1F1B0F5007F31A225469E
:101F00001FD100BF28A050F825308B4216D26D1C7F
:101F1000032DF8D9184D2868C00844EAC00000F025
:101F20003FF80646286800F00700A04213D000F0F2
:101F3000D5F8801B0328F5D3032070BD52F8254047
:101F4000E8E700BF1CA050F825308B42F6D26D1C8C
:101F5000032DF8D3DEE7002070BD00000801005813
:101F60003C1100202011002090000058000400586F
:101F70008C80C111FCFFFEEE0040005808000058A4
:101F8000448F00080024F4000048E801048F000892
:101F90004092000840420F002868C00848EAC0008C
:101FA000286000F09BB80000120000002400000030
:101FB0003600000040000000060000000C00000099
:101FC00010000000000000000100000002000000FE
:101FD00003000000D3BBD9B1B2F5803F5BD2022A27
:101FE0001ED98C46B1FBF2F102FB11C31B0443EA7C
:101FF0001043B3FBF2FC02FB1C3380B240EA034304
:10200000B3FBF2F002FB103240EA0C4000237047B1
:10201000022A05D98446B0FBF2F002FB10C27047D9
:102020004AB105D100F0010249085FEA300070476B
:1020300000220023704700F017BD0B0002000021B2
:1020400000207047F7D3002200237047904271EBC5
:10205000030CF2D370B5B1FA81F4B3FA83F52C1BFB
:10206000A340C4F1200532FA05F63343A2405FF0E5
:102070000046E64002E05B085FEA3202841A71EB38
:10208000030524BF204629467641F4D302000B0005
:102090003000002170BD70B5B1FA81F4B2FA82F55A
:1020A000C4F120046419B4F12006DAD3B2405FF021
:1020B0000044F440002502E052085FEA3303C61AE8
:1020C00071EB020E24BF3046714664416D41F3D37B
:1020D00002000B002000290070BD2E00014840685E
:1020E000704700BF18110020704770470A010100B7
:1020F00002D43A4B5A547047394801F00F01014459
:1021000001F8042C704737490A6860F30A2240F24C
:10211000FA5060F31F420A60704770B5314C236873
:10212000C3F302230124C3F10705052D2FBF0F269A
:10213000C3F1070604FA06F6761E1D1D072D34BFEF
:102140000023DB1E3140994004FA03F3BDE87040E0
:102150005B1E1A401143C9E7010007D4012200F0B9
:102160001F01214B8A40400943F82020704701009D
:102170000BD4012200F01F011C4B8A40400943F898
:102180002020BFF34F8FBFF36F8F7047401EB0F119
:10219000807F01D30120704715494860F02215481F
:1021A000027000238B6007220A6000207047010044
:1021B00007D4012200F01F010F4B8A40400943F869
:1021C00020207047010007D4012200F01F010B4BB3
:1021D0008A40400943F820207047000000E400E0F6
:1021E00018ED00E00CED00E000E100E080E100E02F
:1021F00010E000E023ED00E000E200E080E200E01B
:10220000002200F033BC7047DFF818331968020968
:1022100002F47F220001914300F47F2008431860FC
:102220007047DFF800331A68010C22EA014242EAE3
:1022300000421A6070472DE9F843074600243878B9
:10224000DFF8E0524206A0464FF0B04643D5396B66
:1022500071B1B1F5800F06D0B1F5000F18BFB1F51F
:10226000400F2ED035E0F06840F48030F06029E077
:10227000306820F080603060FFF730FF81463068C2
:10228000C00EC00707D5FFF729FFA0EB0900022801
:10229000F5D9032415E000F033F9B86821F478117A
:1022A00000F037F981463068000106D4FFF716FFC9
:1022B000A0EB09000228F6D9EBE731697869014300
:1022C00031613CB92968386B21F440010143296030
:1022D00001E00124A0463968080532D5D5F8088008
:1022E000386C08F4407880452AD000F081FBB8F1C2
:1022F000000FA96805D1386C21F440710143A96031
:102300001EE0A86840F48030A86021F44071A868FD
:1023100020F48030A860386C0143A960A868C00729
:102320000ED5FFF7DBFE8046A868800708D4FFF7CC
:10233000D5FEA0EB080041F289318842F4D3032492
:10234000A0463878C20705D52968B869890840EAE7
:10235000810129603978880705D52968F86921F451
:102360004061014329603978C80644BFB86AFFF765
:1023700058FF3978880644BFF86AFFF752FF39786A
:10238000480744BF386AFFF73FFF3878010744BF6A
:10239000786AFFF739FF3968C80535D52968786B41
:1023A00021F0406101432960796BB1F1006F00F0C9
:1023B000A1F8786BB0F1806F26D1316821F080618F
:1023C00000F0ACF804463168C90EC80707D5FFF71E
:1023D00085FE001B0228F6D94FF0030814E000F038
:1023E0008FF8F86821F0606100F093F804463168D6
:1023F000080105D4FFF772FE001B0228F7D9EBE7AE
:102400003169786901433161396888051BD5B86B3A
:10241000B0F1804F18BFB0F1004F00D018B9296853
:1024200021F0404108E02A6822F040422A6020F072
:102430008050296821F0406108432860B86BB0F1F2
:10244000C05F00F057F83868420538D52968F86B46
:1024500021F0405101432960F96BB1F1005F03D1D4
:10246000F06840F48030F060F86BB0F1805F26D106
:10247000316821F0806100F051F804463168C90EDE
:10248000C80707D5FFF72AFE001B0228F6D94FF030
:10249000030814E000F034F8386921F0604100F0DE
:1024A00038F804463168080105D4FFF717FE001B11
:1024B0000228F7D9EBE7316978690143316139685E
:1024C000C80405D5E968786C21F440410143E9600E
:1024D000396888040BD5716AF86C21F0300101432A
:1024E0007162716AB86C890840EA81017162404684
:1024F000BDE8F28303D1F06840F08070F06070476F
:102500003169786821F4FE4141EA00213161316985
:10251000704701433161316841F080613160FFF7FC
:10252000DDBD0000880000588E4A00E08E4A81B070
:10253000116801431160126810400090009801B0CA
:10254000704778B585B000F05BFA00F0A9FA00F0AA
:1025500092F800F0CDF8854D8548864CA8634FF47D
:10256000881605F1380000F0F1FC14216846FFF7E9
:1025700047FE0420FFF7DAFF0120FFF7D7FF08200E
:10258000FFF7D4FF0220FFF7D1FF002220212046D1
:1025900000F0C5F9102001210090029101966946D2
:1025A000754800F0FBF8032100910196012102918A
:1025B0006946724800F0F2F82020009001210220C4
:1025C00001910022039002926946204600F0E6F84D
:1025D000002200210620FFF7A0FD0620FFF7BCFD2A
:1025E000002200210720FFF798FD0720FFF7B4FD28
:1025F000002200210A20FFF790FD0A20FFF7ACFD22
:102600000420FFF791FF0120FFF78EFF0220FFF764
:102610008BFF00220F210E20FFF77FFD0E20FFF71A
:102620009BFD00220F213A20FFF777FD3A20FFF7AC
:1026300093FD53482860002147F6FF700F22E860A1
:102640006960AA602961A961E9616961284600F0B1
:10265000B5FC00220021284600F05CFD4948686274
:102660000021A96205F1240000F0E0FD00F02FFA3E
:1026700000F06AFBFCE780B59AB0482108A8FFF794
:10268000BFFD1C2101A8FFF7BBFD00F0B1F93E49D9
:102690003E4A086820F0180008600120116860F3C5
:1026A0004A2111604FF48031126802F4C062009236
:1026B0004722009B0A901290099100204FF48071EC
:1026C0004023139008920B910C9308A8FFF772F81F
:1026D0006F2201920221029100220392049205923C
:1026E00006920792012101A8FFF7ADFA1BB000BDC9
:1026F00080B594B050216846FFF782FD4FF44052F8
:102700004FF48041009211910222102112921391F4
:102710006846FFF790FD15B000BD4FF4E13110B5EC
:102720001B4C1C4A616000200C216161A060E060CC
:102730002061A0614FF4004120626062A0622260CB
:10274000E1612046FDF7FAFC0021204600F0ABFDD8
:102750000021204600F0B2FD2046BDE8104000F008
:1027600085BD0000480000584C000058FC170020B0
:10277000000C00580004004800080048000C004805
:102780000028004000100058900000580004005835
:102790005816002000380140704700002DE9F04F26
:1027A0000024DFF89891664D4FF00F0802460B4663
:1027B00031E0644FBA4214BF4FF0070E4FF0040EE1
:1027C0000EFA01F141EA060E5F4941F82CE0C743D9
:1027D00029685E683940F60248BF0143296069688C
:1027E0005E683940B60248BF01436960D9F80010FD
:1027F0005E683940F60348BF0143C9F80010D9F8B4
:10280000041007EA010C5968890348BF40EA0C0C20
:10281000C9F804C0641C186830FA04F100F07D8027
:102820000121A1400840F5D04FEA440C032606FAE6
:102830000CF65F686FEA060E07F00306012E1CBF58
:1028400007F00307022F10D19668DF680EEA06062C
:1028500007FA0CF73E439660566826EA01015E6867
:10286000C6F30016A64031435160A1001E7906F060
:102870000306032E1ED0D7689E680EEA070706FAE5
:102880000CF63743D7601F7907F00307022F11D1E9
:10289000E60802EB860601F01C07D6F820B008FA1D
:1028A00007FA2BEA0A0BD3F810A00AFA07F747EA4F
:1028B0000B07376216680EEA06071E7906F0030654
:1028C00006FA0CF646EA070CC2F800C05E6816F479
:1028D000403F9FD01C4E4FEA940C56F82C6001F0FC
:1028E0000C0108FA01F7BE43B2F1904F08BF4FF058
:1028F000000E11D0154FBA4208BF4FF0010E0BD099
:10290000134FBA4208BF4FF0020E05D0114FBA4222
:102910007FF44FAF4FF0030E52E7BDE8F08F0AB1DE
:1029200081617047816270470B490A6803461A4209
:102930001CBF0B6000F019BA7047000080080058F7
:10294000000800580010004808000140000400483A
:1029500000080048000C00480C08005870B500F151
:1029600024035A78012A1DD11878012801D10220A8
:1029700070BD5C6A0120187025680B480A68CE6833
:1029800005401543761E48680A7A45EAC645054360
:10299000487A45EA024545EA40252560002119703C
:1029A000002070BD012070BDFFFD00E070B50F4E2E
:1029B000044630780025A8B1FFF75CFA31784FF46F
:1029C0007A72B2FBF1F1B0FBF1F0FFF7DFFB48B92F
:1029D000102C07D2002221464FF0FF30FFF79DFB5D
:1029E000B46000E00125284670BD00BF181100202A
:1029F0000249086840F4807008607047000400587D
:102A0000124810B5016841F4807101600320FFF79E
:102A10007AFB0020FFF7CAFF0024002814BF01241E
:102A2000FEF71FFB204610BD094880687047084824
:102A3000007870470749086840F001000860704757
:102A40000449086840F002000860704700400058E0
:102A500018110020042004E0DFF80800006800F4EA
:102A6000C0607047000400587047000000B500BF08
:102A7000130096469446103928BFA0E80C50FAD8A7
:102A80005FEA417C28BF0CC048BF40F8042BC9074F
:102A900028BF20F8022B48BF00F8012B00BD000022
:102AA00080B5DFF888134FF400420A60002000F080
:102AB00057FC58B18079DFF87813DFF878330B6072
:102AC0000A6822F47C5242EA00220A6001BD10B575
:102AD000DFF86413DFF8644388B0086840F0500002
:102AE0000860CA22DFF85803C2615321C161FF2187
:102AF0000268D208D2000260C161DFF8481308689A
:102B000040F40040086000F03FFCDFF83C2311680F
:102B1000042060F3020111600020CC4900F072FD36
:102B200000F0FFFE0121012000F033FC002000F046
:102B3000A7FF012000F0A4FF022000F0A1FF012068
:102B400000F0BEFF0121002000F0CAFF012101209A
:102B500000F0C6FF0121022000F0C2FF0FF2252382
:102B6000BB4901220020FEF7AFFD01F013F8B94A7E
:102B70000021402001F06FF904F23C500FF23101C6
:102B80000090019169460FF22D0001F0E7F904F57C
:102B9000C961039104F25470029040F23C510591D6
:102BA000049402A801F07EF800F0F2FF08B010BD16
:102BB0007047000070B5064688B07068A64C00F1FA
:102BC0000B054FF412412A88521A11D0521E6DD0B3
:102BD000521E00F07F80921E00F08980521E00F08D
:102BE0008B80521E00F08B80521E00F08F8091E08F
:102BF000684601F076FA9DF802309DF801209DF8B4
:102C00000010204601F0AEFA9DF804100FF2642087
:102C100001F0A8FA9DF80C309DF80B209DF80A10E1
:102C20009BA001F09FFA00BF9FA001F09BFA04ADAA
:102C3000002000210022002385E80F0070680D307D
:102C4000007838BBA0A0854E01F08CFA00F0E6FEBB
:102C50000F207F218DF810008DF8121004F50970F7
:102C600035682D0C294601F07DFAADF81C5034680A
:102C70009CA0C4F30B04214601F074FAADF81E4089
:102C800004A801F027FA01F081FA0021012000F0E8
:102C900080FB3FE0012806D104F5127001F062FAD2
:102CA0000020307036E004F51F7031E004F124009C
:102CB00001F058FA706800F10D0504F5C07029782C
:102CC00001F050FA2878002814BF04F5F67004F5D6
:102CD000D8701DE004F1480001F044FAD5F8062050
:102CE000D5F8021004F1980001F03CFA12E0D5F892
:102CF000021004F1C00006E004F1FC0008E0D5F881
:102D0000021004F5907001F02DFA03E004F5AE70A6
:102D100001F028FA08B070BD38B50446FFF7DEF9B7
:102D200014F1010F054609D0FFF781FE241805E0D4
:102D30004B49086820F00400086030BFFFF7CEF967
:102D4000401BA042F4D331BD01E0704700BF4FF0FB
:102D5000FF3001F00DB80021402001F089B80220B9
:102D600001F0A8B8022001F0ADB8012805D0022872
:102D700005D0102805D101F045BD01F045BD01F099
:102D800045BD7047F8B5374C314E04F580752F8836
:102D9000B7F5807F3BD231780D2935D14FEA040158
:102DA00058A001F0DFF91EA1204601F0BBFD04F59B
:102DB000827720B957A001F0D5F92B4814E019A16A
:102DC000204601F0AFFD28B954A001F0CBF94FF037
:102DD000B05009E014A1204601F0A4FD48B900BF9D
:102DE00050A001F0BFF921486860384601F0A4FD09
:102DF00003E021464DA001F0B5F94FF48071204663
:102E0000FFF7FEF9002701E0E1557F1C2F803146D6
:102E100001B0BDE8F040164B01220020FEF754BC83
:102E20005357310053573200535733001040005866
:102E30009C000058FECAFECA900800583C000320BF
:102E4000082800400800005880040058FC170020A3
:102E5000281A00209F3F000870840008002004E02A
:102E600010ED00E0C0130020040000160100001661
:102E7000852D0008576972656C6573732046697209
:102E80006D77617265206275696C642025640A0043
:102E90004655532076657273696F6E2025642E2522
:102EA000642E25640A0000003E3E3D3D2053484309
:102EB000495F5355425F4556545F434F44455F5207
:102EC000454144590A0D00003E3E3D3D20574952C0
:102ED000454C4553535F46575F52554E4E494E47FA
:102EE000200A00003E3E3D3D204442474D43555F91
:102EF00047657444657669636549443D20256C786F
:102F0000200A0D0072656365697665642025730A81
:102F100000000000535731204F4B0A005357322016
:102F20004F4B0A00535733204F4B0A004E4F54204B
:102F30005245434F474E495A454420434F4D4D411A
:102F40004E44203A2025730A00000000F8B50446DC
:102F50000025ACB104F13406307910B92046FEF7F3
:102F60008FF80F4F384600F021F8386840F0011014
:102F70003860204600F007F835600120307100E02D
:102F800001252846F2BD10B500240649064A00EB8B
:102F90008403641C062C5A60D961F8D310BD00006C
:102FA000000C005807220008EB20000800230360F3
:102FB0004FF03F1242603F218160704738B50400F6
:102FC0004DD094F8210028B9002184F82010204623
:102FD000FEF73AF90221DFF8CC0084F821100268EC
:102FE000D10640D42268CA2050625321206800F0E4
:102FF0003FF8FF2510B100F03FF830E02268DFF81D
:10300000A80091680140916023689A68606821690E
:103010000243A0690A4302439A602068E1680161A3
:1030200022681069A16840EA0140106100F02AF8A6
:10303000C86C80088000C8642368DA6CE069616944
:1030400002430A43DA6422689068810609D400F0DA
:1030500020F830B120684562042100F01CF80120FE
:1030600032BD20684562012184F82110002032BD64
:103070004162204600F033B820684562042184F89C
:10308000211070472168C86820F08000C86021685E
:10309000704720460AE084F82110002084F82000C0
:1030A000704700000C280040BFFF8FFF38B5044672
:1030B0002168C86820F0A000C860FFF70FF8054637
:1030C0002068C168880608D4FFF708F8401B40F262
:1030D000E9318842F4D3032032BD002032BD38B537
:1030E00004462068C1684A0612D44FF0FF31C1601F
:1030F000FEF7F4FF05462068C168480608D4FEF7CD
:10310000EDFF401B40F2E9318842F4D3032032BD89
:10311000002032BD2DE9F84300F056F808BF022028
:103120004AD000F058F80CD5FEF7D8FF07462068C3
:10313000C168480705D5FEF7D1FFC01B4845F6D347
:1031400014E02068816821F480618160206800F0CB
:1031500061F8C160FEF7C2FF07462068C2685107E8
:1031600009D4FEF7BBFFC01B4845F6D32068456273
:1031700000F044F820E0C0F8148021688868C00896
:10318000C000886021688868064320488E60016816
:1031900041F4002101601E48026842F400220260EE
:1031A00001222068816841F48041816000F006F8C6
:1031B00000F036F884F82000BDE8F28321688868C2
:1031C00040F48060886070470446884694F8200088
:1031D000164601287047012084F82000022184F857
:1031E0002110CA2022685062532120684162FF25C5
:1031F00020688168480540F2E9397047032184F866
:103200002110002084F82000032070478008005817
:1032100000080058C16801F0800161F490617047B6
:10322000002021684D6284F82120704710B5040009
:1032300001D1012010BD607A20B900212172204601
:10324000FDF7E5FF0220607222681168606821F0D6
:1032500020010143116001222068016841F004014E
:10326000016062720020E06010BD000010B500F146
:1032700084010A78012A01D1022010BD01230B70BC
:1032800024224A600468226823685B085B0023608C
:103290000024446622F000520068026020234B6044
:1032A0000C70002010BD70B500F01FF801D1022095
:1032B00070BD00F020F820F0604009E070B500F02B
:1032C00014F801D1022070BD00F015F820F0606004
:1032D00001439160204600F01BF820680660202220
:1032E0006A6000212970002070BD044604F1840545
:1032F00028780128704701222A70242068602268FB
:103300001668106840084000106022689068704796
:1033100030B5416E11B90124012114E0026800BFEB
:103320000BA39168D2F808500BA2490E01F00701D7
:103330006D0F5C5D5B5C555D515CE400DB0094FBF4
:10334000F5F493FBF1F168304480018030BD00005A
:103350000101010307010000080402040801010142
:1033600020B501460648074D00E00838C2798A4278
:1033700018BFA842F9D18A4218BF002020BD00BF63
:10338000F873FF1F0070FF1F0D48002202604260AB
:10339000704710B500F007F8536800F009F8536063
:1033A00084F3108810BDEFF3108472B6044A70479E
:1033B00019B1012902D103437047834370470000CC
:1033C000401A0020DFF81C25116889B200E0014690
:1033D000106880B28142FAD17047F0B5DFF8084535
:1033E000DFF808552678182203465343B0422B4491
:1033F00004D122786270587D207010E093F814C0D8
:10340000587D5F7D05F1150612FB0CFC062806F8B9
:103410000C7004D01E7D143512FB00F2AE54012056
:1034200018732278062A02BF00294FF0FF30E060AF
:10343000F0BD10B5DFF8B044E06810F1010F0ED018
:10344000FFF7C0FFE16881422FBFE268E168E288D0
:103450008A182179101AE2784843D04000E0002011
:1034600080B210BD2DE9F84FDFF884A4DFF884B4F2
:10347000DAF80050DBF80000410502D5E8684107A2
:10348000FCD4A868DFF86074DFF8609420F48060F2
:10349000A8604FF018083C7809F1080118FB04F007
:1034A0000E58FFF7C6FF864238BF002608D3398979
:1034B0004118B14203D23E890022BA701AE0361A8E
:1034C0000121B97016E009F1080309F10802195940
:1034D000091A11510BE018FB04F409F1080C5CF80F
:1034E00004308342EFD209F1080100220A5109EBAE
:1034F00004014C7D062CEED1B0B238B9FFF762FF63
:10350000F8600320BDE8F24FFEF751BE022802DA50
:10351000F878012800D0761EE8684107FCD5E868F5
:1035200000F0EAF8E8604FF4002100F02CF9DBF835
:103530000C0066F30F00CBF80C00FFF743FFF860B8
:10354000DAF80010886840F480608860AFF300808B
:10355000BDE8F18F2DE9F843EFF3108472B6DFF880
:103560009053DFF888732A68CA2050625321516251
:103570009068DFF8741320F48060906018200E7853
:10358000334643431F4497F80CC0BCF1020F26D1C9
:10359000D7F80080D7F810908878E8B17A7B012AB4
:1035A0000AD101213046FFF718FF84F310887968AB
:1035B000304600F0EDF804E084F31088304600F067
:1035C000A0F82868CA22426253214162424631462D
:1035D000484601F0C1F910E0FFF744FF0BE0D06866
:1035E0004107FCD5D06800F087F8D0604FF4002187
:1035F000DFF80403016084F31088FF2229684A621F
:10360000BDE8F1832DE9F041DFF8E4422168CA23E7
:103610004B6253224A624FF6FF7CDFF8D8221368D0
:1036200043F0200313601368956896682D0C05F02D
:103630007F05C6F30E066D1C761C721E2F4603F026
:10364000070317FB02F7C3F10403A7F5A077DF40D8
:10365000A54A67452CBFA2F808C01781D370D68051
:103660001571A64B1E6846F400261E60A44E3568F0
:1036700045F40025356060BB012595704FF0FF30A3
:10368000D0600027994800F10C05002618205FFA49
:1036900087F810FB08F87F1C5FFA87FE05F80860C2
:1036A000BEF1060FF3DB062010708A6822F48062F8
:1036B0008A60C86800F020F8C8604FF40021D96023
:1036C0000320FEF77FFD2168886840F48040886011
:1036D00005E0C968480544BF0320FEF768FD21687E
:1036E000FF204862002203210320FEF716FDBDE8FB
:1036F000F0410320FEF730BD00F0800060F49060E0
:103700007047F8B50746EFF3108472B60320FEF752
:103710002EFD774D7B4A2E68CA217162532070625C
:10372000394618204143535C022B23D100213846EF
:10373000FFF753FE6C490878062816D16D4A1068C9
:10374000410502D5F0684107FCD4B06820F48060E0
:10375000B060F0684107FCD54FF40021F068FFF736
:10376000CBFFF06000F00FF804E04978814218BF09
:10377000FFF778FE2968FF2048620320FEF7ECFC83
:1037800084F31088F1BD5C4801600320FEF71ABD88
:103790002DE9F84F8246894618245146534D61431E
:1037A0006E18307B022804BF5046FFF7AAFFEFF3E4
:1037B000108772B60320FEF7DAFCDFF83481D8F800
:1037C0000000CA2242625321416202203073C6F8CF
:1037D0000890C6F80490DFF8109199F800000628C8
:1037E00009D100F078F8062272754FF0FF30C9F861
:1037F0000C00002058E0FFF71CFEB1680918B1600A
:1038000005F10802B16899F800306343D358994232
:103810002AD399F8003004E005F1150E63431EF831
:10382000033005F1150C14FB03F21CF80220062AE4
:1038300006D005F1080C62435CF802209142EBD2FD
:103840001A46624305F11501895C062905D005F188
:10385000140C14FB01F40CF804A07175337505F118
:10386000150101F802A01FE099F8001099F8003046
:10387000994214FB01F210D005F1140B05F1150E5D
:103880001BF8023014FB03F40EF804A071753375B5
:1038900005F1140101F802A004E005F114037175AB
:1038A00003F802A000F017F899F8001099F8012029
:1038B0008A4202D0FFF7D6FD02E0B168081AB06074
:1038C000FF20D8F8001048620320FEF745FC87F37C
:1038D0001088BDE8F18F99F8001089F8011089F877
:1038E00000A0704728280040F8190020EC1600209E
:1038F000FC170020082800400C0800580008005859
:1039000080080058F81600203E4A00E03E4A81B088
:10391000116801431160126810400090009801B0D6
:103920007047F0B585B0FFF785F8FFF789F837499C
:10393000086840F480300860002601F02AF814215D
:103940006846FEF75DFC002500240022304901EBAB
:10395000C201887988B10F68B7F1904F0BD02D4B19
:103960009F4205D02C4B9F4207D18888044304E036
:1039700089880D4301E088880643521C262AE5DB2E
:10398000012101910020032231000290039211D005
:1039900000960120FFF7B8FF0120FFF7B7FF694647
:1039A0004FF09040FEF7FAFE002231464FF0904073
:1039B000FEF7B5FF280010D000950220FFF7A4FF06
:1039C0000220FFF7A3FF134E69463046FEF7E6FEDE
:1039D000002229463046FEF7A2FF200010D00094B6
:1039E0000420FFF791FF0420FFF790FF0A4D69467E
:1039F0002846FEF7D3FE002221462846FEF78FFF19
:103A000005B0F0BD4C0000584C010058900800581B
:103A1000C8890008000400480008004800B587B0C5
:103A20004FEA0D0009A11C2200F0F0FF00F06FF931
:103A3000684600F047FB07B000BDFEF76EBE1346B8
:103A40000A4601460020FDF757BE000000000000B6
:103A50000000000000000000C889000828000320C2
:103A60002C00032026040400414A81B01168014360
:103A70001160126810400090009801B0704700007B
:103A800078B585B0054600F06EF80220FFF7ECFF30
:103A90003AA1384E31F815400094012101910022DD
:103AA000022102920391694656F82500FEF776FE40
:103AB00056F8250000222146FEF731FF06B070BD02
:103AC00010B500F005F8BDE810400122FEF727BF51
:103AD0002AA4284B34F8101053F820007047000037
:103AE00030B585B004460D4600F03DF8200008BF13
:103AF000042004D0012C18BF022C02D10820FFF7AB
:103B0000B3FF2800DFF870201EA10ED131F8143069
:103B1000009300210191012302210293039100F0FF
:103B20001DF80120FFF7F8F816E0012D14D131F847
:103B30001400009001234FF404110293019100F04E
:103B40000DF800BF11A0045D00220F2160B2FEF746
:103B5000E4FA60B2FEF700FB05B030BD694652F8EA
:103B60002400FEF71BBE14210022684600F05ABF55
:103B70004C000058241100203011002020000100CA
:103B80000200000010000100020000000A06070009
:103B900000F0C1BF6C486D49016001F12003436032
:103BA00001F13002826001F14003036201F1480239
:103BB000426201F15003C36001F15802026101F158
:103BC0007403436101F1780282618431C16100F0C4
:103BD000C0BF38B504465E4D284601F01FF85A496B
:103BE0004868A1680160E2685A49C2604160856026
:103BF00000F0CBFF58482AE080B5534843681A6864
:103C000001211172406800F0C6FF002002BD38B5E6
:103C1000514C4F4D04E000F041F80098216888476E
:103C2000284600F0FEFF0028F5D031BD4A4948681B
:103C3000004738B50446494D284600F0EFFF424999
:103C4000C968A06808604D6000F0AAFF4448216878
:103C5000016062684260002032BD80B53A48C368A6
:103C60001A6810211172C06800F0A0FF002002BD88
:103C700035483B4AC168C36811681868084738B5B9
:103C8000374C364D04E000F009F800986168884729
:103C9000284600F0C6FF0028F5D031BD6946284609
:103CA00000F0EABF38B504462E4D284600F0B6FFB6
:103CB0002D4800F0B3FF24480069A2688260E168E3
:103CC000C1600561236803606268426021694161E7
:103CD0006269826131BD80B50146234800F0B6FFBC
:103CE000BDE802400FF2050000F069BF38B5164C80
:103CF0001D4D06E0FFF7D2FF00992069006900F032
:103D0000A5FF284600F08DFF0028F3D031BD10B587
:103D1000164C204600F082FF0B4948690460BDE85C
:103D2000104000F061BF1CB5104C06E0694620460B
:103D300000F0A2FF009800F0ADFF204600F071FFF8
:103D40000028F3D013BD000000000320B8090320B1
:103D5000580A03209C080320501A0020600A032000
:103D6000581A0020480A0320481A0020500A03204D
:103D70002DE9F843664CDFF89C81A5692840A061D5
:103D80004FF0FF3600F061F801273AE05B1C54F871
:103D900033C012EA0C0FF9D054F83320104004EB72
:103DA000C3090840D9F80410014208BFC9F80460EB
:103DB000D9F80410084000F0AFF8D9F8042007FA49
:103DC00000F18A43C9F804206062EFF3108172B6F3
:103DD00007FA00F22069D24310402061022004EB70
:103DE000C003401E53F808CC02EA0C0C43F808CC80
:103DF000F5D181F31088616A58F82100804700F0FE
:103E000024F8A16900EA0C0C1CEA010F05D01A4243
:103E100003D1002300EA0102B9E7666200F03BFF2C
:103E2000EFF3108672B62269E1696069A369024006
:103E30001A4202BF206A0142FEF787FF86F310880C
:103E400000F02AFFA561BDE8F183D4F810C0E26953
:103E50006069236A704738B51446EFF3108572B66F
:103E600000F05AF82B4941F8204085F3108831BD05
:103E700030B5EFF3108272B6254B1D6905431D6105
:103E800053F83140204343F8310082F3108830BDAD
:103E9000EFF3108372B61E494A6922EA000005E07A
:103EA000EFF3108372B61A494A691043486183F3ED
:103EB00010887047EFF3108372B61549CA69104332
:103EC000C861F4E72DE9F041114C616A06460D46E0
:103ED00011F1010F0EBF4FF00008012000FA01F8A8
:103EE000276A266203E031464046FEF72FFFE0696D
:103EF0003042F8D06562EFF3108172B6E06920EAD3
:103F00000606E66181F310882762BDE8F0810000B3
:103F1000F01000207C170020014600200A0C12043B
:103F200004BF1020090411F07F4F04BF08300902BC
:103F300011F0704F04BF001D090100BF03A2090F5B
:103F4000C0F11F00515C401AC0B270470403020266
:103F50000101010100000000000000007FB50C46D7
:103F60004E4D61684E4E28626962281D00F096FE33
:103F70002468746006F1080000F050FE012000F093
:103F800069F801203070696841B10FF2ED030FF25A
:103F9000F102009301920294684688477FBD1FB5E5
:103FA0003F4C04F1080000F03CFEF8B92078E8B17D
:103FB000694604F1080000F05FFE3848016A49B123
:103FC0000098029001228DF8042001A888479DF8EE
:103FD000040000E00120207018B10098FFF77BFE7C
:103FE00004E0009904F1080000F024FE04F1080048
:103FF00000F017FE28B9207818B104F10800FEF788
:10400000AAFE1FBD2DE9F04105460E4690461C460E
:10401000002000F01FF8224F7868A0F80950C672FF
:10402000324641460C3000F0F1FC1C4A0120107071
:10403000002152690020904748F2E800FEF792FE06
:1040400079688A78D21C04F1080000F0DFFCBDE832
:10405000F041012010B51149124C496A20B901B153
:1040600088470021217010BD0120207011B1BDE8EA
:104070001040084710BD00000020FEF770BE000091
:1040800010B50146064C04F1080000F0DFFD04F114
:104090000800BDE81040FEF75EBE0000B019002029
:1040A000181A00206D1A0020FFF7ACFF9DF80E00D3
:1040B00005B000BDF8B500F10C026B462E214FF69D
:1040C0006640F1E7F8B500F10C026B460F214FF6A0
:1040D0006840E9E7F8B502466B4610214FF6754097
:1040E000E2E7F0B51C490A681C49C2F30D0201EB76
:1040F00082011B4A0D682B68934205D16969AA6940
:10410000EB69EC682D6905E02E4631697269B36987
:104110007468B5680E0E067002720E0C46700F0AB7
:10412000C1F3031601F00F010171C670110E417148
:10413000160C110AC171220E210C8272C172240A5E
:104140002A0E290C8770867143720473427381733F
:10415000C5730020F0BD00003C4000580000032063
:10416000B95646A90EB41EB5024605A80190002412
:10417000009401AB0121044878440C3000F09BFD11
:1041800003B010BC5DF810FB29510000F8B596B0E3
:10419000DFF8405607A829463C2200F037FCDFF83C
:1041A00038760FF29D660FF281600097019669469E
:1041B00001F0E4FC01210220FFF7EBF8DFF81C26F8
:1041C00000210420FFF747FE07A8FFF773FF38B16F
:1041D000014605F13C00FFF7C5FFFEF7DDFA03E0FD
:1041E00005F17400FFF7BEFF0DF1160000210180FC
:1041F00005F58C70FFF7B6FF01F094FD010004D0C7
:1042000005F5A270FFF7AEFF03E00FF2A060FFF725
:10421000A9FFDFF8CC25DFF8CC45106810F1010FBD
:104220000DD051682070090A000A6070080A5268AF
:10423000E170A270090C20716171264606E0002031
:10424000FFF78EF8060008BF0FF2B066324606216F
:10425000002001F0E2FD28B1014605F5BA70FFF734
:1042600081FF10E005F5E870FFF77CFF30780290E1
:1042700071780191B0780090F3783279717905F511
:104280000770FFF76FFF0FF27C621021182001F01A
:10429000C4FD28B1014605F51670FFF763FF03E082
:1042A00005F52C70FFF75EFF0FF268621021082001
:1042B00001F0B3FD28B1014605F53E70FFF752FF4E
:1042C00003E005F55470FFF74DFF1921012001F0BF
:1042D000CBFD28B1014605F56670FFF743FF03E00B
:1042E00005F57670FFF73EFF01F0FAFD28B10146B3
:1042F00005F58160FFF736FF03E005F23C40FFF76C
:1043000031FF06A90DF11A000191009005AB0922B9
:104310000021012002F029F828B1014605F58C6042
:10432000FFF720FF03E005F59260FFF71BFF0FF298
:104330009C50BDF81A1000900923BDF8140000220B
:1043400001F086FE0DF1160000900223BDF8181052
:10435000BDF81400002201F07BFE022202210020A1
:1043600001F039FD28B1014605F2B440FFF7FAFE2D
:1043700003E005F59E60FFF7F5FEDFF86C640120B1
:10438000307001F08FFF28B1014605F21C50FFF795
:10439000E9FE03E005F25C50FFF7E4FE082030710F
:1043A00001210020F0700022DFF840047170B0603D
:1043B000B270049203901021102208207171002322
:1043C00001920090029301220121002001F07CFF64
:1043D00028B1014605F28C50FFF7C4FE03E005F555
:1043E000BB60FFF7BFFEB07860B102F00FF828B1F4
:1043F000014605F21460FFF7B5FE03E005F25460D4
:10440000FFF7B0FE05F28460FFF7ACFE02F084F81F
:104410004FF6FF700021F08286F8801001200FF225
:104420000D32FFF718FD0FF23D3200210220FFF799
:1044300012FD062001F026FD28B1014605F19C0081
:10444000FFF790FE03E005F1E000FFF78BFE002090
:1044500001212072617202F0E3F80FF2A92200211B
:104460002020FFF7F8FC00213183012000F017F92C
:1044700017B0F0BD2DE9F8432DED028B074684B04F
:104480007878DFF86043DFF86053DFF8649305283D
:1044900005D03E2820D0FF2800F08280F4E0B988C3
:1044A000E88A81420CD10022EA8285F880204846C1
:1044B000FFF758FEBA79B98809F12C00FFF752FED0
:1044C000012000F0ECF80120207304F10C00E98ACF
:1044D000E18102F0A4F8D7E0F8780A26012809F172
:1044E0009C089FED9E8B17D00328F4D109F168003A
:1044F000FFF738FEB7F80B0046430196B7F80940BE
:104500000094B7F8070002F013F953EC182B02F0EF
:104510001DF900F0BFF8B7E0B7F8051009F5847091
:10452000FFF720FE787A0290B97A0191F87A00902C
:104530003B7B7A7BB97B09F5A870FFF713FEB7F8D0
:10454000130046430196B7F811000090B7F80F002A
:1045500002F0EEF853EC182B02F0F8F800F09AF89D
:1045600095F8800004280CBF0620052085F88000FF
:104570000020B7F805102073E181E98204F10C00F6
:1045800002F04DF8E88A40F64802FB2101F0F0FB0A
:10459000010018BF09F5D07055D109F5EE7069E03A
:1045A000B7F8031040F20140091A52D0491E22D038
:1045B000491F1AD0891E2ED0491E19D040F2F6305C
:1045C000091A0FD040F20340091A02D00B3954D017
:1045D0005AE009F50270FFF7C5FDB7F8071000BFF4
:1045E0009CA030E0012060724EE009F50C7041E0C3
:1045F00009F516703EE009F52270FFF7B3FDE88A71
:104600007A4901F097FE18B1014609F52C701AE0BD
:1046100009F539702EE009F54370FFF7A3FDD7F8CF
:10462000071000BF0FF23820FFF79CFDD7F80710E6
:1046300092A0FFF797FDE88A012101F035FF28B12C
:10464000014609F55070FFF78DFD1DE009F5647016
:1046500010E009F57670FFF785FDF97929B13A7A0E
:1046600009F20440FFF77EFD03E000BF89A0FFF7D9
:1046700079FD57A0FFF776FD06E009F58860FFF7A2
:1046800071FDE88A01F03DFD04B00120BDEC028B14
:10469000BDE8F28302460B464046FFF763BD30B5E6
:1046A000514C544D84F8800087B000220692059248
:1046B0000020002302920192049003930090A02214
:1046C000802101F0A1FD010003D02846FFF74AFD3B
:1046D00003E005F13800FFF745FD04F184011920DE
:1046E00001F076FE38B1014605F1640007B0BDE87F
:1046F0003040FFF737BD05F1980007B0BDE8304006
:10470000FFF730BD80B53849C88A01F0C4FC3A4A89
:1047100020B9BDE802401046FFF724BD014602F172
:104720002400BDE80440FFF71DBD000010B52E4C6D
:1047300094F88000052810D001F054FD002184F881
:10474000801008B12D4804E063A0FFF70BFD00BF07
:1047500063A0BDE81040FFF705BD10BD00000000DC
:104760000000F43F7CB5204D95F88000012818BF6B
:1047700000282CD01B48427A012A28D10021027A35
:104780001F4C4172521C511801F0FE01521A027264
:10479000B7EE040AD2B200EB82004FF4FA76D0ED05
:1047A000040AE88A009680EE800ABDEEC00A10EE88
:1047B000102A92B20023114602F09DF8002814BF7F
:1047C000204604F12800BDE87640FFF7CBBC73BD5E
:1047D0000A00000058790008AC080320BB5B000801
:1047E0008075FF1F080000202000002007B2010094
:1047F000088000081C8D0008CC900008C0910008BB
:104800007490000801F070BF01F072BF00212020F9
:10481000FFF72EBB00210420FFF72ABB0120FFF782
:1048200049BB0120FFF74EBB10B50446616801F19A
:10483000080002F095F800B10120207010BD0000C2
:1048400010B1012803D070473F20FFF721BB3F2064
:10485000FFF726BB4D5455203D202564200A00005B
:1048600020202020202D206E756D657269635F7693
:10487000616C7565203D20256C640A002020202095
:10488000202D204865785F76616C7565203D202578
:104890006C780A0020202020202D20506169726948
:1048A0006E6720537563636573730A002020537528
:1048B00063636573733A206863695F7265736574D7
:1048C00020636F6D6D616E640A00000050325053BA
:1048D000455256455200000020200D0A0D000000F0
:1048E0002A2A2053544F502041445645525449538C
:1048F000494E47202A2A20200D0A0D006C7AD8AC98
:1049000057720000123456789ABCDEF01234567892
:104910009ABCDEF0FEDCBA0987654321FEDCBA09E9
:104920008765432110F8012B11F8013B0AB19A4227
:10493000F8D0D01A7047000003680648C3F300415E
:104940004901012203F01F0302FA03F343507047A9
:1049500000000000080800581047000038B5EFF3C9
:10496000108472B6274D6946281D02F03CF969464D
:10497000281D02F091F938B184F31088BDF80010B9
:10498000214AFFF75CF831BD0120287084F31088BC
:1049900031BD80B5FFF751F802210091002319487D
:1049A00000F124014FF48052001D02F001F801BD16
:1049B00000BFF8B514460026EFF3108510F1010F83
:1049C0001ED001281CBF02284FF0FF3618D1BCB101
:1049D000264672B60B4F012392B2381D01F0FCFF40
:1049E00000281CBF3978002908D000223A7085F3CE
:1049F0001088A1B2044AFFF722F801E085F310887D
:104A00003046F2BDCC0000205D4900084AB10000EC
:104A100011F8013B521E00F8013B1CBF11F8013B8D
:104A2000F8E770474018491C1CBFB1F1010100F8BC
:104A3000012DF9D170470000C0680840884201D1BB
:104A40000120704700207047C0690840884201D1AA
:104A5000012070470020704710B5674C02212046A6
:104A6000FFF7F2FF38B16168C943880703D5FFF744
:104A700006F9022018E001212046FFF7E5FF38B1D2
:104A80006168C943C80703D5FFF7C1F801200BE0EF
:104A900008212046FFF7D8FF38B16168C9430807ED
:104AA00003D5FFF740F90820A06010BD10B5524CA7
:104AB000022100F097F858B96068C043810307D518
:104AC000606840F400306060BDE81040FFF7D0B887
:104AD00000F087F870B96068C04301030AD56068C8
:104AE000464A40F400206060106880474FF400217F
:104AF000A16010BD202100F075F858B96068C0436E
:104B0000810207D5606840F400106060BDE8104085
:104B1000FFF78CB810BD3A4881B0016841F48011AC
:104B20000160006800F4801000900098354801682A
:104B300041F4007101603449086840F40070086075
:104B400040BF20BF3149086840F40040086001B010
:104B5000704780B52E48016841F4801101600068FB
:104B600000F48010009000982348026842F001028F
:104B70000260016841F4803101602C20FDF7ECFAFD
:104B8000BDE802402D20FDF7E7BA22490868400839
:104B900040000860704720484FF480310160704742
:104BA0001C49086820F002000860704719484FF45B
:104BB00000324260016821F400310160704738B56D
:104BC00005460D4C00F00DF830B10C4805606168E9
:104BD00021F40021616031BDA8474FF40020A0609E
:104BE00031BD0821204627E70A49086820F008005F
:104BF0000860704700000000000C0058641A002094
:104C00005001005820080058D40800580C040058DF
:104C100050000058040C0058080C00580060406018
:104C20007047EFF3108272B6016881420CBF012019
:104C3000002008E0EFF3108272B603680B60486052
:104C400001600868416082F310887047EFF31082BA
:104C500072B6086043684B60416048680160F2E7E3
:104C6000EFF3108172B6436802681A600368426805
:104C70005A6081F31088704710B5EFF3108472B654
:104C800002680A600168FFE70846FFF7E9FF84F35E
:104C9000108810BD7047704770470000024A0349F2
:104CA00002600161704700BF333C00085B3C0008B4
:104CB00040F0200070472DE9F14FB0B092460491CA
:104CC0000DF142013A9A2B9199464A7000200AE070
:104CD0001AF8011B0498309A90470028049000F0BD
:104CE00043860D98401C0D909AF8000050B125287D
:104CF000EED1002200210792089109920A910B92AD
:104D00000C9104E00D9800F031BE41F001011AF859
:104D1000010F2028F9D023280CD02B2804D02D28CF
:104D200005D0302809D00BE041F00201EFE741F057
:104D30000401ECE741F00801E9E741F01001E6E782
:104D40002A280FD1D9F8002052F8040BC9F8002006
:104D500000280F9003D540420F9041F004010AF162
:104D6000010A14E00F92DFF80C0C0AE00F9C844259
:104D700005DA04EB840302EB4302303A0F920AF1A6
:104D8000010A9AF80020A2F130030A2BEED39AF818
:104D900000202E2A03D04FF0FF300E9029E01AF8A1
:104DA000010F2A2809D1D9F8002052F8040BC9F8BC
:104DB00000200E900AF1010A1BE02D280CBF0AF119
:104DC000010A002000220E92DFF8A85B0BE040B938
:104DD0000E9BAB4205DA03EB830402EB4402303A4C
:104DE0000E920AF1010A9AF80020A2F130030A2B70
:104DF000EDD3ADF840100FF680309AF8001001F0B6
:104E00009BFF08B11AF8010B8DF842009DF8420093
:104E1000682805D19AF8001068290CD1622006E0B4
:104E20006C2804BF9AF800106C2904D171208DF809
:104E300042000AF1010A12AA06921AF801BBBBF15C
:104E400025002CD01C3800F09781001F022840F26A
:104E50009381133800F0BA84093800F08D81801EE8
:104E600000F04F85401E00F0FC84401E022840F2F6
:104E70008381001F00F0F584401F00F0F280401E87
:104E800000F0A484401E00F0DA80C01E0ED0801E08
:104E900000F09C84C01E00F0998400F03DBD01220A
:104EA000252107928DF8481000F042BDD9F8000086
:104EB00050F8044BC9F80000002C059440F0AB807A
:104EC0002B994878002800F0A1804FF0FF340FF6AE
:104ED000B02001F03DFF241A40F0468500F028BDC7
:104EE00001236A4602A9304600F00CFE002840F07B
:104EF0003B85641EF4D13096079C12AE74B1309F8E
:104F000016F8011B0498B8470028049000F02C857F
:104F10000D98401C641E0D90F2D130970A9C3021F0
:104F2000002C8DF800100CDD309E01236A4602A98A
:104F3000304600F0E7FD002840F01685641EF4D1ED
:104F40003096059E089C74B1309F16F8011B04989A
:104F5000B8470028049000F007850D98401C641E97
:104F60000D90F2D130970B9C3021002C8DF8001061
:104F70000CDD309E01236A4602A9304600F0C2FDD6
:104F8000002840F0F184641EF4D130960598089909
:104F9000099C461874B1309F16F8011B0498B84755
:104FA0000028049000F0E0840D98401C641E0D90D1
:104FB000F2D130970C9C3021002C8DF800100CDDC4
:104FC000309E01236A4602A9304600F09BFD00286E
:104FD00040F0CA84641EF4D130969DF84000410729
:104FE0007FF582AE2020002D8DF800007FF77CAE8B
:104FF000309C01236A4602A9204600F083FD002868
:1050000040F0B2846D1EF4D130946DE60FF654304A
:10501000059000F08DBC0E9D002D04D5204601F0BA
:10502000B7FE044608E02A460021204601F0CCFEE7
:10503000002814BF041B2C46089400F079BCD9F852
:10504000001051F8040BC9F8001020F000020021F4
:1050500021F0FF33CDE9022312AC0594782100F052
:105060004CBC2B99487820B14FF0FF340FF6C42088
:105070002FE79DF84200622860D0682817D06A2880
:105080003FD06C2806D0712847D074282CD07A28BD
:105090001DD062E0D9F8001051F8040BC9F80010D7
:1050A000002866D14FF0FF340FF6A02011E7D9F8A1
:1050B000001051F8040BC9F8001020B94FF0FF346C
:1050C0000FF6882005E70D99018000F031BCD9F872
:1050D000001051F8040BC9F80010002849D14FF016
:1050E000FF340FF66820F4E6D9F8001051F8040BED
:1050F000C9F8001000283CD14FF0FF340FF64C20C7
:10510000E7E6D9F8001051F8040BC9F8001080B98F
:105110004FF0FF340FF63420DBE6D9F8001051F8D9
:10512000040BC9F8001020B94FF0FF340FF61C2013
:10513000CFE60D9AD317C0E90023F9E3D9F80010A0
:1051400051F8040BC9F8001020B94FF0FF340FF6E6
:10515000FC10BEE60D990170EAE3D9F8001051F891
:10516000040BC9F8001020B94FF0FF340FF6DC1023
:10517000AFE60D990160DBE39DF842004C2807BFC4
:10518000D9F80010CA1DD9F80000C21D22F007028C
:10519000C9F80020D2E900010832C9F80020CDE9A1
:1051A0000201C80F02D007982D210AE0BDF8401077
:1051B000880702D507982B2103E0C80705D5079873
:1051C000202112AA1154401C079012A807994BF0F5
:1051D000200300EB010CDDE90201CDE92C01612B7C
:1051E000CDF814C021AC0BD00E98002848BF062182
:1051F00005D404BF4BF02000672801D101210E9196
:10520000DDE902677B0043EAD6735A15DB174FF0DE
:10521000FF30834208BF824210D13F0347EA16574E
:105220003603002F08BF002E08D0ABF16105032123
:105230001A2D089118D30FF6341110E0DDE90201A0
:105240004A00521512F1010F11D108030FD1ABF131
:10525000610503211A2D08911FD30FF6181103229F
:105260006046FFF7D3FB63E30FF6FC01F7E7DDE9E8
:1052700002016A4601F0D4FDCDE902014BF02000A5
:10528000612811D1059830220270811C0591BBF173
:10529000610F0CBF7821582102E00FF6D401DEE740
:1052A00041700798801C0790DDE9020120F00002A0
:1052B00031F0004308BF002A02D10026002542E158
:1052C0004BF02008B8F1610F40F093800E98002851
:1052D00047BF21210191401C0190019EDDE92C0175
:1052E000761C00220023DDE9024501F0D1FD38BF24
:1052F00085F0004500988DF88420001F002E009056
:105300000DF1850732DD204629460022002301F0F9
:10531000D9FD2BD21C2201F0EFFD04460D4601F011
:1053200089FEF61F002E804609DD01F09FFE024631
:105330000B462046294601F061FF04460D46F81D44
:105340000721B8F1000F0CDD491E5EBF08F00F0207
:1053500000F8012D4FEA2818F3D502E0002200F8EA
:10536000012D491EFAD5C71D002ECCDC0DF185009C
:105370003F1A01980DF185043E468742C8BF064694
:10538000002E2FD4BE4206DA0DF18500815D08297A
:10539000A8BF0F2000DA0020324621A98D1800E0B6
:1053A000761E15F80139521E8342F9D00F2804D118
:1053B0000DF18501885C401C8854002A04D50098B2
:1053C000001D21AC761C0090701E0BD421180B78A8
:1053D0003033DAB23A2AA4BF5B443A3B401E01F8AC
:1053E0000139F4D50E99002940F1AC80701E0E9061
:1053F000A8E00099DFF8FC2647F29750414391FB63
:10540000F2F20092DDE92C45C2F10702002A25F0F4
:10541000004504DD2046294600F049FB0BE05242DE
:105420000020DFF8D41600F042FB02460B4620466F
:10543000294601F055FF04460D46B8F1660F06BF38
:10544000009E0A3606260E983618142EC8BF14265B
:1054500030208DF884000DF18507002E34DD2046C4
:10546000294602F061F801460A4607F1080C0420BB
:105470000A27B2FBF7FE0EEB8E03A2EB430230329B
:105480000CF8012C0A22BEFBF2F202EB8203AEEB17
:1054900043033033401E0CF8023DE9D1083E002E94
:1054A0000CF10807D9DD084601F042F902460B4627
:1054B0002046294601F0A2FE0022DFF8403601F026
:1054C00045F904460D46CAE70DF185003F1A0DF176
:1054D000850404E00098401E7F1E0090641C207824
:1054E0003028F7D0B8F1660F02D1009E761C04E098
:1054F000B8F1650F0CBF012600260E983618B7428A
:10550000B8BF7E1E002E1DD4BE4204DAA05D342832
:10551000C8BF392000DC30203246611E8D1800E003
:10552000761E15F80179521E8742F9D0392802D12A
:10553000A05C401CA054002A04D50098401C0C46D6
:10554000761C0090009D02F001F8406A0778DDF8B3
:10555000388030B2002802DC01260FF21C644BF0C8
:105560002000662808BF6D1C16D0672845D128B2D8
:1055700010F1040F47DB404545DA9DF840106D1CE3
:10558000080703D430B24045D8BF804628B2B8EBF4
:10559000000848BF4FF000080FFA85FBBBF1000F71
:1055A00000F3B3800898411C0891302205990A54F1
:1055B000B8F1000F03DC9DF84010080704D50898E7
:1055C000411C089105990F5418EB0B0FB8BFC8F197
:1055D00000052DB26842454432B20B909542B8BFE7
:1055E0002E46059B089836B2099632462146184445
:1055F000FFF70CFAAD1B0C95D1E0BBF1610F17D191
:105600004FF0700B19E030B2404504DA9DF84010BD
:105610000A0758BF8046B8F1010848BF4FF000089C
:10562000BBF1670F14BF4FF0450B4FF0650B04E063
:10563000BBF1410F08BF4FF0500B0898411C089177
:10564000B8F1000F059914F8012B0A5403DC9DF8FA
:10565000401008071AD50898411C0891B8F1000FAE
:1056600005990F5412DD761E30B28045B8BF46460C
:105670000598089B32B221461844FFF7C7F90898ED
:1056800036B230180890A8EB06000B9005980899E0
:10569000014428B2002881F800B003D42B204870C0
:1056A000891C04E02D224A700546891C6D420020A9
:1056B0002CAA0AE02B460A2593FBF5F505EB850499
:1056C000A3EB440302F8013B401C2DB2002DF1DC9A
:1056D000012806DC4BF02002652A04BF302201F8C5
:1056E000012B00282CAB08D1302001F8010B06E07B
:1056F000401E1A5C303201F8012B0028F8DC059AB4
:1057000008981044091A099149E031B228B281423F
:105710001CDA059B089832B221461844FFF776F947
:10572000089936B271180891ABEB0600B8F1000F7A
:105730000B9003DC9DF84000020704D50598475400
:105740000999491C0991CDF8308028E0059B0898FB
:105750002AB221461844FFF759F90898761B584495
:10576000B8F1000F089003DC9DF840100A0703D53C
:10577000411C089105990F5430B28045B8BF464688
:105780000598089B32B204EB0B011844FFF73EF971
:10579000089836B230180890A8EB06000B909DF8D8
:1057A000400000F01400102840F0C280079A0898CA
:1057B0000B99821809988A1882180C980F998018EA
:1057C000884280F2B580081A0A90B1E09DF8420044
:1057D000622808D068280ED06A2814D06C281FD000
:1057E000712810D01CE0D9F8001051F8040BC9F84A
:1057F0000010C0B21AE0D9F8001051F8040BC9F833
:10580000001080B212E0D9F80000C21D22F0070299
:10581000C9F80020D2E900010832C9F8002006E0EA
:10582000D9F8001051F8040BC9F800100021CDE997
:1058300002019DF8400002075AD5DDE90201002966
:1058400008BF002854D04BF02002782A50D1079985
:1058500012A830234354491C4A1C079200F801B097
:1058600046E09DF84200622808D068280ED06A28D9
:1058700014D06C281FD0712810D01CE0D9F800106B
:1058800051F8040BC9F8001040B21AE0D9F8001022
:1058900051F8040BC9F8001000B212E0D9F800006A
:1058A000C21D22F00702C9F80020D2E90001083227
:1058B000C9F8002006E0D9F8001051F8040BC9F827
:1058C0000010C117CDE90201002902D507982D2249
:1058D0000AE0BDF84000810702D507982B2203E0BB
:1058E000C00705D50798202212A90A54401C07902A
:1058F00012A8079901440591594602A800F04EF8F4
:1059000016E001200790D9F8001051F8040BC9F8EF
:1059100000108DF848000BE001222521BBF1000F9B
:1059200007928DF8481003D0022007908DF849B0F7
:105930000F9D07980A992D1A08986D1A0B992D1A20
:1059400009986D1A0C992D1A9DF840006D1A41079F
:105950003FF5D2AA2020002D8DF800007FF7CCAAB9
:10596000309E2C46FFF7BCBA4FF0FF3031B0BDE897
:10597000F08F0000CBCCCC0C686A6C747A4C0000C1
:105980007072696E74665F733A2062616420257379
:1059900020617267756D656E740000002DE9FE4C24
:1059A00006468B46376958466F2808BF082205D03F
:1059B000FFF77EF9782814BF0A221022D6E90001E9
:1059C0003C2504468A46BBF1640F18BFBBF1690F42
:1059D00004D1002902D564426AEB4A0ABAF1000FE9
:1059E00008BF002C0CD1306B50B9082A3BD196F877
:1059F0003810080737D530213B2587F83B1032E0B7
:105A00008DF800B09346204651465A460023FCF7D5
:105A1000E1FA3032D0B26D1E3A2801950DDA7A558E
:105A2000204651465A460023FCF7D4FA04465FEA62
:105A3000010A08BF002C05D108E09DF800001218EB
:105A4000513AECE7F16878198142DCD3BBF1080FD9
:105A500009D196F83800010705D5785D302802D0C5
:105A60006D1E30207855C5F13C02306BB26179195A
:105A70008242F16007DA318F821A4FF6EF700140EF
:105A80003262318710E000280ED596F8380000F019
:105A90001400102808D1736B7069316A1B1A5B1AE5
:105AA0009B1A002BC8BF336203B0BDE8F08C2DE910
:105AB000D04306460F4614464FF00008DFF84090EA
:105AC00012E0E00707D542464B463046394600F023
:105AD0003DFE06460F464046494642464B4600F0CC
